:100000000C9467000C948F000C948F000C948F005C
:100010000C948F000C948F000C948F000C94AE0BFA
:100020000C948F000C948F000C948F000C948F0014
:100030000C948F000C948F000C94680C0C948F001F
:100040000C944A0B0C948F000C94300C0C940A0CFA
:100050000C948F000C948F000C948F000C948F00E4
:100060000C948F000C948F004D6F72736520436F5A
:100070006465204465636F646572000200000000DF
:10008000240027002A0000000000250028002B0083
:10009000040404040404040402020202020203032E
:1000A0000303030301020408102040800102040836
:1000B00010200102040810200000000800020100C6
:1000C0000003040700000000000000003D0B1124A5
:1000D0001FBECFEFD8E0DEBFCDBF12E0A0E0B1E0A1
:1000E000E8EFFFE102C005900D92AE37B107D9F7F6
:1000F00023E0AEE7B2E001C01D92A238B207E1F7FB
:1001000010E0C7E6D0E004C02197FE010E94BF0EB8
:10011000C636D107C9F70E94A50B0C94FA0F0C94B0
:1001200000000895833069F028F48130B1F0823006
:10013000C1F008958730C9F08830E9F0843001F5C6
:1001400006C0E0E8F0E080818F7780830895E0E8E2
:10015000F0E080818F7D8083089584B58F7784BDA2
:10016000089584B58F7D84BD0895E0EBF0E0808133
:100170008F7780830895E0EBF0E080818F7D80832E
:1001800008951F93CF93DF93282F30E0F901E854AF
:10019000FF4F8491F901EC55FF4F1491F901E0579D
:1001A000FF4FC491CC23D1F0D62F81110E94920031
:1001B000EC2FF0E0EE0FFF1FEA57FF4FA591B4912F
:1001C0008FB7F894D11106C09C91E12FE095E923F7
:1001D000EC9303C0EC91E12BEC938FBFDF91CF91B7
:1001E0001F910895CF93DF9390E0FC01EC55FF4FF2
:1001F0002491FC01E057FF4F8491882379F190E02E
:10020000880F991FFC01E458FF4FA591B491FC01A0
:10021000EA57FF4FC591D49161110CC09FB7F89474
:100220008C91E22FE0958E238C932881E223E88342
:100230009FBF14C0623061F49FB7F8948C91322F45
:10024000309583238C93E881E22BE8839FBF06C01F
:100250008FB7F894EC91E22BEC938FBFDF91CF91A5
:1002600008958E3008F08E508770806480937C00F3
:10027000EAE7F0E080818064808380917A0086FDE7
:10028000FCCF209178008091790090E0982F88270A
:10029000822B0895789484B5826084BD84B5816092
:1002A00084BD85B5826085BD85B5816085BDEEE67E
:1002B000F0E0808181608083E1E8F0E0108280815D
:1002C00082608083808181608083E0E8F0E08081CB
:1002D00081608083E1EBF0E0808184608083E0EBEB
:1002E000F0E0808181608083EAE7F0E080818460D3
:1002F000808380818260808380818160808380812F
:10030000806880831092C10008958230910538F092
:10031000880F991F880F991F05970197F1F7089586
:100320003FB7F89480917A0390917B03A0917C036E
:10033000B0917D0326B5A89B05C02F3F19F001960B
:10034000A11DB11D3FBFBA2FA92F982F8827820F5B
:10035000911DA11DB11DBC01CD01660F771F881F26
:10036000991F660F771F881F991F08958F929F927C
:10037000AF92BF92CF92DF92EF92FF926B017C011E
:100380000E9490014B015C011DC021E0C21AD108FE
:10039000E108F10888EE880E83E0981EA11CB11CCC
:1003A000C114D104E104F10469F00E949001DC0160
:1003B000CB0188199909AA09BB09883E9340A10578
:1003C000B10518F7C114D104E104F10449F7FF9015
:1003D000EF90DF90CF90BF90AF909F908F90089557
:1003E0002FB7F8946091760370917703809178032A
:1003F000909179032FBF08950895813039F018F056
:10040000823051F0089510926E000895EFE6F0E00A
:1004100080818D7F80830895E0E7F0E080818D7F8B
:10042000808381E08093B000E1EBF0E08081887F01
:10043000846080831092B3000895CF93C82F20E08A
:1004400030E0121613069CF0F901E050FF4F808156
:100450008C130AC0F901E558FF4F8491F901E0506F
:10046000FF4F9FEF908304C02F5F3F4FEACF8FEF86
:100470000E94FD0160E08C2F0E94C100CF91089581
:10048000E0E0F0E01E161F0664F0DF01A050BF4F51
:100490009C91981304C0E558FF4F849108953196BC
:1004A000F1CFE0E0F0E01E161F0684F0DF01A0505F
:1004B000BF4F9C919F3F41F4DF01A050BF4F8C93F1
:1004C000E558FF4F949103C03196EDCF9FEF9F3FCA
:1004D00009F469C0913011F1923009F43FC09111D3
:1004E00064C014BC15BC24B5226024BD25B52160B0
:1004F00025BD282F30E0F901E057FF4FE491F0E0EF
:10050000EE0FFF1FEA57FF4F45915491F901EC554B
:10051000FF4F249120936503892F08951092800046
:10052000E1E8F0E0108220812860208320812160B2
:100530002083282F30E0F901E057FF4FE491F0E0ED
:10054000EE0FFF1FEA57FF4F45915491F901EC550B
:10055000FF4F249120936403892F0895A0EBB0E00E
:100560001C92E1EBF0E010822C9122602C93208110
:1005700021602083282F30E0F901E057FF4FE491FC
:10058000F0E0EE0FFF1FEA57FF4F45915491509353
:100590006F0340936E03F901EC55FF4F24912093B4
:1005A0007003892F0895892F0895892F08952F9218
:1005B0003F924F925F926F927F928F929F92AF92F3
:1005C000BF92CF92DF92EF92FF920F931F93CF9340
:1005D000DF9300D01F92CDB7DEB789838B0149012D
:1005E0005A010E9440028A8388230CF457C161E0BB
:1005F00089810E94F2008A81882319F0823009F0F3
:10060000CDC02801612C712C60E072E18AE790E096
:10061000A30192010E94810E222E332E4B83598317
:1006200069017A0191E0C91AD108E108F1088FEF58
:10063000C816D104E104F10409F008F49DC060E497
:1006400072E48FE090E0A30192010E94810E6901A3
:100650007A0191E0C91AD108E108F1088A81823053
:10066000C1F49FEFC916D104E104F104A1F098F0A0
:1006700060E970ED83E090E0A30192010E94810E99
:1006800069017A0181E0C81AD108E108F10883E024
:1006900003C082E001C082E09FEFC916D104E104EB
:1006A000F10409F008F46BC068E478EE81E090E0B2
:1006B000A30192010E94810E69017A0181E0C81AAA
:1006C000D108E108F1089A81911102C083E001C0CC
:1006D00084E09A819230B9F49FEFC916D104E10405
:1006E000F10489F080F064E274EF80E090E0A3010F
:1006F00092010E94810E69017A0181E0C81AD10835
:10070000E108F10885E09FEFC916D104E104F10486
:10071000B1F1A8F162E17AE780E090E0A3019201F3
:100720000E94810E69017A0181E0C81AD108E108AE
:10073000F1089A81911102C084E001C086E09FEF28
:10074000C916D104E104F104D1F0C8F0622D732D73
:100750008B81998120E034E040E050E00E94810EDE
:1007600069017A0181E0C81AD108E108F1089A818B
:10077000911104C085E003C081E001C087E09A8147
:10078000911105C095B5987F892B85BD3AC0E1EBE5
:10079000F0E09081987F892B808333C02801612C01
:1007A000712C60E072E18AE790E0A30192010E945F
:1007B000810E69017A0181E0C81AD108E108F108C7
:1007C000C114D10491E0E906F10488F068E478EE00
:1007D00081E090E0A30192010E94810E69017A01FB
:1007E00081E0C81AD108E108F10883E001C081E086
:1007F0009A81913031F4E1E8F0E09081987F892B83
:10080000808381149104A104B10471F0D801AA0F6E
:10081000BB1FA50194010E94A00E28EE33E040E02A
:1008200050E00E945F0E03C02FEF3FEFA9018A81C5
:10083000813099F0823019F1811130C0C7BC20930A
:100840006A0330936B0340936C0350936D03EEE6A1
:10085000F0E080818260808321C0D0928900C092C4
:100860008800209366033093670340936803509396
:100870006903EFE6F0E08081826080830FC0C09260
:10088000B30020937103309372034093730350932A
:100890007403E0E7F0E08081826080830F900F9026
:1008A0000F90DF91CF911F910F91FF90EF90DF900C
:1008B000CF90BF90AF909F908F907F906F905F9000
:1008C0004F903F902F900895DC01ED91FC910190A5
:1008D000F081E02D09950895EF92FF920F931F93F9
:1008E000CF93DF938C01FB01C0E0D0E07F018FEF5D
:1008F000E81AF80A6491662369F0D801ED91FC9139
:100900000190F081E02DC8010995892B19F02196FD
:10091000F701ECCFCE01DF91CF911F910F91FF90A6
:10092000EF900895CF92DF92EF92FF920F931F9373
:10093000CF93DF938C01DB01C0E0D0E07A0181E04E
:10094000E81AF108452BA1F0F80180819181FC01A2
:10095000208131816D01FFEFCF1ADF0A6C91C80150
:10096000F9010995892B21F02196A701D601E6CF3F
:10097000CE01DF91CF911F910F91FF90EF90DF900B
:10098000CF900895019779F56F3F7F4F61F5E7ECC0
:10099000F2E01382128288EE93E0A0E0B0E084835C
:1009A0009583A683B78386E192E09183808385EC6B
:1009B00090E09587848784EC90E09787868780EC29
:1009C00090E0918B808B81EC90E0938B828B82EC1A
:1009D00090E0958B848B86EC90E0978B868B118EC4
:1009E000128E138E148E0895FC01238D348D2317DF
:1009F00038F08FE390E0821B9109830F911D0895D9
:100A0000832F90E0821B910901970895FC01918D3D
:100A1000828D981761F0828DDF01A80FB11D5D9660
:100A20008C91928D9F5F9F73928F90E008958FEFCE
:100A30009FEF0895FC01918D828D981731F0828D82
:100A4000E80FF11D858D90E008958FEF9FEF0895D9
:100A5000FC01218D30E0205C3F4F828DA901481BB5
:100A60005109CA018F739927089587EC92E00E947B
:100A7000280521E0892B09F420E0822F0895CF92E8
:100A8000DF92EF92FF921F93CF93DF93EC016A0105
:100A90007B01122F60E079E08DE390E0A7019601E1
:100AA0000E945F0EDA01C9010197A109B109B6954B
:100AB000A795979587959C01E889F98982E08083BD
:100AC000C11481EED806E104F10421F0211580E182
:100AD0003807A8F0E889F989108260E874E88EE1A7
:100AE00090E0A70196010E945F0EDA01C90101970B
:100AF000A109B109B695A795979587959C01EC85B5
:100B0000FD853083EE85FF852083188EEC89FD8975
:100B10001083EA89FB89808180618083EA89FB896F
:100B2000808188608083EA89FB89808180688083F6
:100B3000EA89FB8980818F7D8083DF91CF911F912E
:100B4000FF90EF90DF90CF900895FC01848DDF013E
:100B5000A80FB11DA35ABF4F8C91248D30E02F5F99
:100B60003F4F2F733078332334F421503109206CF8
:100B70003F6F2F5F3F4F248FA689B7898C93A08941
:100B8000B1898C91837080648C93938D848D98133C
:100B900006C00288F389E02D80818F7D80830895CF
:100BA0000F931F93CF93DF93EC0181E0888F9B8D90
:100BB0008C8D981307C0E889F989808185FD04C070
:100BC00080E003C080E001C081E0882391F08FB70E
:100BD000F89491E0992359F0EE89FF896083E889C0
:100BE000F989908193709064908390E0F3CF8FBFE8
:100BF00034C02B8D30E02F5F3F4F2F73307833237D
:100C000034F421503109206C3F6F2F5F3F4F162F76
:100C1000022F8C8D08130CC00FB607FCFACFE889A1
:100C2000F989808185FFF5CFCE010E94A505F1CF1E
:100C30008B8DFE01E80FF11DE35AFF4F10839FB724
:100C4000F89481E0882341F00B8FEA89FB89808149
:100C50008062808380E0F6CF9FBF81E090E0DF91EB
:100C6000CF911F910F9108951F93CF93DF93EC01C4
:100C7000188D112329F1EA89FB89808185FD07C040
:100C8000A889B9898C9186FD04C0812F03C0812F6A
:100C900001C080E08823A1F00FB607FC05C0908159
:100CA00095FD03C080E001C080E0882321F3E8893E
:100CB000F989808185FFDFCFCE010E94A505DBCFBA
:100CC000DF91CF911F91089580E090E0892B19F07A
:100CD0000E94350501C080E081110E940000089546
:100CE000CF93DF93EC0160E08E810E94C10081E030
:100CF00090E00E94850161E08E810E94C10081E048
:100D000090E00E94850160E08E810E94C10084E62F
:100D100090E00E948501DF91CF910895FF920F939B
:100D20001F93CF93DF938C01F62EC0E0D0E0C83044
:100D3000D1058CF46F2D70E00C2E02C0759567956F
:100D40000A94E2F76170F801EC0FFD1F87810E94A1
:100D5000C1002196ECCFC8010E947006DF91CF91AF
:100D60001F910F91FF900895FF920F931F93CF93C0
:100D7000DF938C01F62EC0E0D0E0C430D1058CF4B6
:100D80006F2D70E00C2E02C0759567950A94E2F7FE
:100D90006170F801EC0FFD1F87810E94C100219650
:100DA000ECCFC8010E947006DF91CF911F910F9187
:100DB000FF9008951F93CF93DF93EC01162F642FBC
:100DC0008C810E94C1008D818F3F19F060E00E94EC
:100DD000C1008F8584FF05C0612FCE010E948E0661
:100DE00011C0612F70E0759567957595679575953C
:100DF000679575956795CE010E94B406612FCE0167
:100E00000E94B406DF91CF911F91089541E00E94A6
:100E1000DA0681E090E00895FC016089262F2460C5
:100E2000208B6C6040E00E94DA060895443008F0A0
:100E300043E0FC012389421710F04FEF420FFC0101
:100E4000E40FF11D2489620F606840E00E94DA0619
:100E5000089540E061E00E94DA0680ED97E00E948C
:100E6000850108950F93FC01648B458B268B078BBE
:100E70000F910895EF92FF920F931F93CF93DF93FB
:100E8000EC01F42EE22E81E0841718F48F8588603F
:100E90008F87FB8A262F30E08901005C1F4F40E4DA
:100EA00050E060E070E0CE010E943207EE2031F0A9
:100EB00081E0F81203C08F8584608F8761E08C81A8
:100EC0000E94F2008D818F3F19F061E00E94F200D4
:100ED00061E08E810E94F20000E010E08F8584FFC7
:100EE00003C088E090E002C084E090E00817190792
:100EF00054F4FE01E00FF11F61E087810E94F200CF
:100F00000F5F1F4FEBCF80E593EC0E94850160E0FF
:100F10008C810E94C10060E08E810E94C1008D81A1
:100F20008F3F19F060E00E94C1006F8564FD1DC015
:100F300063E0CE010E94B40684E991E10E9485013C
:100F400063E0CE010E94B40684E991E10E9485012C
:100F500063E0CE010E94B40686E990E00E9485011C
:100F600062E0CE010E94B40619C0606240E0CE018A
:100F70000E94DA0684E991E10E9485016F85606232
:100F800040E0CE010E94DA0686E990E00E948501E9
:100F90006F85606240E0CE010E94DA066F85606274
:100FA00040E0CE010E94DA0684E0888BCE010E94E8
:100FB0000C07CE010E94290782E0898B40E066E0A1
:100FC000CE010E94DA06DF91CF911F910F91FF9021
:100FD000EF9008958F92AF92CF92EF920F93CF93AD
:100FE000DF93CDB7DEB7FC01448325830683E78218
:100FF000C086A18682868A8583878B8584878C8537
:1010000085878D858687662311F0178602C080E16B
:10101000878720E041E060E1CF010E943A07DF913D
:10102000CF910F91EF90CF90AF908F9008958F92C6
:10103000AF92CF92EF920F93DC0113961C921E9207
:101040001297EAE0F2E0ED93FC931F921F921F9239
:101050001F928C2CAE2CC02EE22E042F2FEF462F89
:1010600061E00E94EA070F900F900F900F900F9190
:10107000EF90CF90AF908F900895089580E090E02A
:101080000895CF93DF93DC01F894EFEBF2E0228137
:1010900033814481558124173507E9F0EF018681BA
:1010A0009781F901EE0FFF1FEE0FFF1F2E0F3F1F5D
:1010B000FC01E20FF31F95E001900D929A95E1F784
:1010C0008A819B810196688179810E944B0E9B8366
:1010D0008A8381E001C080E07894DF91CF91089508
:1010E00020E030E0A90166E071E088E00E94D702CC
:1010F00060E570E080E090E00E94B60188E00E9428
:101100001D026AE070E080E090E00E94B601089560
:1011100020E030E0A90166E071E088E00E94D7029B
:1011200064E170E080E090E00E94B60188E00E94F7
:101130001D026AE070E080E090E00E94B601089530
:101140000E94D40E0895CF92EF920F93CF93DF9326
:10115000019709F069C06F3F7F4F09F065C0CFEB81
:10116000D2E086E090E0998388831B821A821D82F8
:101170001C828EE190E00E94A0089F838E83E7EBA3
:10118000F2E01082128211828FEF90E094838383C9
:101190008FE790E0968385831782ECEAF2E08FEF89
:1011A00093E091838083138212828FEF91E0958385
:1011B00084831682178210861186EAE9F2E0108293
:1011C0001182128213821582148282E390E0978347
:1011D000868386E990E09187808788EC90E093870A
:1011E000828780E991E09587848784EF91E09787F3
:1011F000868780E293E0918B808B6894CC24C1F841
:101200000F2EF3E0EF2EF02D04E025E04BE06CE034
:1012100082E892E00E94170883E090E00E94A00814
:101220009093810280938002DF91CF910F91EF9094
:10123000CF9008950E94F50F8F929F92AF92BF9228
:10124000DF92EF92FF920F931F93CF93DF93CDB76F
:10125000DEB7A1970FB6F894DEBF0FBECDBF7C01FD
:10126000CB01BA01D22E19A221E02D1520F00F2EAC
:10127000FAE0DF2EF02D8E010F5D1F4F8D2C912C8B
:10128000A12CB12CA50194010E945F0EE62F622FC4
:10129000732F842F952F01501109EA3014F4E05D6B
:1012A00001C0E95CD801EC936115710581059105D8
:1012B00029F70115110591F0F80101900020E9F7D7
:1012C0003197AF01401B510BD701ED91FC9102808A
:1012D000F381E02DB801C701099502C080E090E0DC
:1012E000A1960FB6F894DEBF0FBECDBFDF91CF91B0
:1012F0001F910F91FF90EF90DF90BF90AF909F9064
:101300008F900895CF92DF92EF92FF920F931F93E9
:10131000CF93DF93EC016A017B012115310541F484
:10132000E881F9810190F081E02D642F09951DC0BD
:101330002A303105C1F4772394F46DE20E946404ED
:101340008C0144275527BA014C195D096E097F09A4
:101350002AE0CE010E941C09800F911F06C02AE0DE
:101360000E941C0902C00E941C09DF91CF911F91AD
:101370000F91FF90EF90DF90CF9008959A01AB010D
:10138000770F660B770B0E9482090895DC01ED91BF
:10139000FC910280F381E02D42E050E062E472E0D3
:1013A000099508950F931F93CF93DF93EC010E944B
:1013B0006C048C01CE010E94C609800F911FDF9141
:1013C000CF911F910F9108956115710581F0FB0177
:1013D00001900020E9F73197AF01461B570BDC0164
:1013E000ED91FC910280F381E02D0995089580E054
:1013F00090E008950F931F93CF93DF93EC010E9429
:10140000E4098C01CE010E94C609800F911FDF9173
:10141000CF911F910F910895CF93DF9300D000D00B
:101420001F92CDB7DEB7CE0101960E9441088823F6
:1014300009F4D7C08981813039F465E472E087EC22
:1014400092E00E94E40908C0823031F467E572E05E
:1014500087EC92E00E94E409E0918002F091810221
:1014600089819091B702911124C0813011F5E7EB89
:10147000F2E061817281458156816417750729F414
:1014800091E09093B70290E06FC05093BB024093FD
:10149000BA02461B570B9A0112F42F5F3F4F359546
:1014A0002795260F371F3093BD022093BC0290E092
:1014B0005BC0911127C0823029F5E7EBF2E0438150
:1014C0005481258136814217530729F491E0909386
:1014D000B70290E049C02F5F3F4F3093B90220938D
:1014E000B802BA01621B730BAB0112F44F5F5F4F7E
:1014F00055954795240F351F3093BD022093BC02AC
:1015000090E032C02CEF280F223068F591110AC00C
:10151000A091BC02B091BD02A95FBE4F9C919111F8
:1015200003C003C090E001C091E0992371F0A09145
:10153000BC02B091BD02A95FBE4F2C9120831182E5
:10154000853019F420E221831282E7EBF2E0108269
:10155000128211822FEF30E0348323832FE730E0B3
:101560003683258301C090E08093BE02992381F1E8
:1015700068E287EC92E00E946404609180027091BE
:10158000810287EC92E00E94E40960917E0241E0D2
:1015900082E892E00E9416076091800270918102B9
:1015A00082E892E00E94E40980917E0290917F029D
:1015B000019690937F0280937E02419724F01092CF
:1015C0007F0210927E0269E287EC92E00E9464043E
:1015D0008981853009F027CF87EC92E00E94C60907
:1015E00022CF0F900F900F900F900F90DF91CF911F
:1015F000089526E040E855E260E070E087EC92E074
:101600000E943F0568E670E087EC92E00E94D209F4
:1016100067E472E087EC92E00E94FA0920E041E082
:1016200060E182E892E00E943A0769E572E082E8B0
:1016300092E00E94E4090E9488080E9470080E94BB
:1016400088080E9470080E9488080E9470080E9402
:1016500088080E9470080E9488080E9470080E94F2
:1016600088080E947008F8948FEA87BDEEE6F0E0E3
:10167000808182608083789408956FEF7FEF81E0AE
:1016800090E00E94C2046FEF7FEF81E090E00E9443
:10169000A30808951F920F920FB60F9211240F9373
:1016A0001F932F933F934F935F936F937F938F93EA
:1016B0009F93AF93BF93009176031091770320918E
:1016C00078033091790390917503B901A8014F5FB8
:1016D0005F4F6F4F7F4F83E0890F8D3740F086E873
:1016E000890FB901A8014E5F5F4F6F4F7F4F809305
:1016F0007503409376035093770360937803709358
:10170000790380917A0390917B03A0917C03B0913F
:101710007D030196A11DB11D80937A0390937B03F5
:10172000A0937C03B0937D03BF91AF919F918F9164
:101730007F916F915F914F913F912F911F910F91E9
:101740000F900FBE0F901F9018950E944A010E94A3
:10175000F90A0E940C0A0E946406FBCF1F920F92A6
:101760000FB60F9211242F933F934F935F936F9374
:101770007F938F939F93AF93BF93EF93FF9380914A
:10178000710390917203A0917303B0917403892B3C
:101790008A2B8B2B51F190917003E0916E03F091A5
:1017A0006F038081892780838091710390917203F8
:1017B000A0917303B0917403181619061A061B063C
:1017C000C4F48091710390917203A0917303B0915E
:1017D00074030197A109B109809371039093720377
:1017E000A0937303B093740304C0809100010E941E
:1017F0001D02FF91EF91BF91AF919F918F917F91CA
:101800006F915F914F913F912F910F900FBE0F906D
:101810001F9018951F920F920FB60F9211242F93BD
:101820003F934F935F936F937F938F939F93AF9368
:10183000BF93EF93FF9387EC92E00E94A505FF9181
:10184000EF91BF91AF919F918F917F916F915F9138
:101850004F913F912F910F900FBE0F901F901895B1
:101860001F920F920FB60F9211242F938F939F9375
:10187000AF93BF93EF93FF93E091D702F091D8021B
:10188000808182FD14C0E7ECF2E0A689B7892C9133
:10189000818D8F5F8F73928D891771F0DF01E18DDC
:1018A000F0E0E953FD4F258F59968C9305C0E091E8
:1018B000DD02F091DE028081FF91EF91BF91AF9147
:1018C0009F918F912F910F900FBE0F901F901895A1
:1018D0001F920F920FB60F9211248F929F92AF9288
:1018E000BF92CF92DF92EF92FF920F931F932F93AD
:1018F0003F934F935F936F937F938F939F93AF9398
:10190000BF93EF93FF93CF93DF93CDB7DEB72A97C3
:10191000DEBFCDBFF8948EE00E9431018C010E94A1
:10192000F0014B015C018091B2029091B302A09151
:10193000B402B091B502A5019401281B390B4A0BE2
:101940005B0BDA01C90189389341A105B10508F49F
:1019500058C0ECEAF2E0208131818281938128171E
:1019600039070CF042C0821B930B8531910584F03E
:10197000AC01992314F44F5F5F4F55954795240FA1
:10198000351FECEAF2E03583248381E082872DC0A5
:1019900087EC92E00E94C60967E672E087EC92E06D
:1019A0000E94E4090F2EFCEACF2EF2E0DF2EF02D8C
:1019B000F601608171814AE050E087EC92E00E947C
:1019C000BE0960E287EC92E00E946404F601628145
:1019D00073814AE050E087EC92E00E94BE0987ECF8
:1019E00092E00E94C609F6011286ECEAF2E0138248
:1019F00012828FEF93E09183808386829782A08604
:101A0000B1868091AC029091AD020817190724F4B9
:101A10001093AD020093AC028091AE029091AF02A0
:101A20008017910724F41093AF020093AE028091C7
:101A3000B602882369F02091B0023091B1022017DC
:101A4000310724F4EE24E394F12C02C0E12CF12CB4
:101A5000882309F4FCC00E94F0011E8220919E029E
:101A600030919F022115310509F068C0F1E0EF16B1
:101A7000F10409F063C0EAE9F2E0008111812281FA
:101A800033816B017C01C01AD10AE20AF30ACF82CA
:101A9000D886E986FA8606851785012E000C220B6A
:101AA000330BC016D106E206F30618F025E02E83AC
:101AB00039C00091A4021091A502012E000C220B46
:101AC000330BC016D106E206F30680F00091A602A1
:101AD0001091A702012E000C220B330B0C151D05D3
:101AE0002E053F0518F024E02E831CC00091A002B3
:101AF0001091A102012E000C220B330BC016D1064F
:101B0000E206F30678F00091A2021091A302012EE2
:101B1000000C220B330B0C151D052E053F0510F094
:101B200023E02E83EAE9F2E021E030E035832483EC
:101B3000608371838283938381E05BC021303105B0
:101B400009F054C0EF2809F053C0EAE9F2E000813F
:101B50001181228133816B017C01C01AD10AE20A12
:101B6000F30ACF82D886E986FA8602851385012E8C
:101B7000000C220B330BC016D106E206F30680F0F0
:101B80000091A6021091A702012E000C220B330B2C
:101B90000C151D052E053F0518F022E02E831CC0F4
:101BA0000091A0021091A102012E000C220B330B18
:101BB000C016D106E206F30678F00091A202109159
:101BC000A302012E000C220B330B0C151D052E0554
:101BD0003F0510F021E02E83EAE9F2E0158214823D
:101BE000608371838283938381E003C080E001C0BE
:101BF00080E0882361F185E0FE013696DE011196D2
:101C000001900D928A95E1F7EFEBF2E084819581E6
:101C10000196608171810E944B0E2281338182176F
:101C20009307A9F09583848326813781DC01AA0F6D
:101C3000BB1FAA0FBB1F8A0F9B1FD901A80FB91F7B
:101C400085E0FE01319601900D928A95E1F7789436
:101C50002A960FB6F894DEBF0FBECDBFDF91CF91AD
:101C6000FF91EF91BF91AF919F918F917F916F9174
:101C70005F914F913F912F911F910F91FF90EF90A6
:101C8000DF90CF90BF90AF909F908F900F900FBE3E
:101C90000F901F90189597FB072E16F4009407D00D
:101CA00077FD09D00E94AB0E07FC05D03EF490955D
:101CB00081959F4F0895709561957F4F0895A1E29A
:101CC0001A2EAA1BBB1BFD010DC0AA1FBB1FEE1FB6
:101CD000FF1FA217B307E407F50720F0A21BB30B01
:101CE000E40BF50B661F771F881F991F1A9469F77D
:101CF00060957095809590959B01AC01BD01CF01D9
:101D00000895052E97FB1EF400940E94980E57FD2F
:101D100007D00E945F0E07FC03D04EF40C94980E7F
:101D200050954095309521953F4F4F4F5F4F089507
:101D300090958095709561957F4F8F4F9F4F089537
:101D40000E94C50EA59F900DB49F900DA49F800D7D
:101D5000911D11240895AA1BBB1B51E107C0AA1FA6
:101D6000BB1FA617B70710F0A61BB70B881F991F3C
:101D70005A95A9F780959095BC01CD010895EE0F75
:101D8000FF1F0590F491E02D0994A29FB001B39F2D
:101D9000C001A39F700D811D1124911DB29F700D74
:101DA000811D1124911D08950F931F93CF93DF93ED
:101DB0008230910510F482E090E0E0918003F09190
:101DC000810320E030E0A0E0B0E0309719F14081DD
:101DD00051810281138148175907C8F0841795076C
:101DE00069F4109731F012960C93129713961C9386
:101DF00027C0009380031093810322C02115310571
:101E000019F04217530718F49A01BD01EF01DF01E1
:101E1000F801DBCF21153105F9F0281B390B2430EF
:101E2000310580F48A819B816115710521F0FB01E8
:101E30009383828304C09093810380938003FE0187
:101E4000329644C0FE01E20FF31F8193919322501A
:101E50003109398328833AC020917E0330917F0372
:101E6000232B41F4209103013091040130937F032F
:101E700020937E032091010130910201211531054B
:101E800041F42DB73EB74091050150910601241B46
:101E9000350BE0917E03F0917F03E217F307A0F486
:101EA0002E1B3F0B2817390778F0AC014E5F5F4FB0
:101EB0002417350748F04E0F5F1F50937F03409360
:101EC0007E038193919302C0E0E0F0E0CF01DF91C7
:101ED000CF911F910F910895CF93DF93009709F44D
:101EE00081C0FC01329713821282A0918003B091CD
:101EF0008103109781F420813181820F931F2091FB
:101F00007E0330917F032817390751F5F0937F0343
:101F1000E0937E0367C0ED0120E030E0CE17DF07DD
:101F200040F44A815B819E0141155105F1F0EA01BF
:101F3000F5CFD383C28340815181840F951FC81789
:101F4000D90759F488819981840F951F029691834E
:101F500080838A819B81938382832115310529F4B3
:101F6000F0938103E09380033DC0E901FB83EA83A2
:101F700049915991C40FD51FEC17FD0761F4808179
:101F80009181840F951F0296E9019983888382814C
:101F900093819B838A83E0E0F0E012968D919C917F
:101FA0001397009719F0FD01DC01F7CF8D919C91FB
:101FB00011979D012E5F3F4F820F931F20917E034B
:101FC00030917F032817390769F4309729F410926C
:101FD00081031092800302C013821282B0937F03A8
:101FE000A0937E03DF91CF91089581E090E0F89473
:081FF0000C94FA0FF894FFCFE6
:101FF800FF000082032000000000350000004800B8
:1020080000003400000053000024000000005600C7
:1020180000003300000049000000000000004600F6
:1020280000000000000055003F0000005F000000B5
:1020380000003200000045000000260000004C00AF
:10204800220000000000520000002B002E000000BB
:1020580000000000000041000000000000005000E7
:1020680040000000000057000000000000004A0087
:102078002700310000000000000036002D0042005B
:1020880000003D000000440000002F000000580040
:102098000000000000004E000000000000004300A7
:1020A8003B00000021004B000000280029005900D7
:1020B80000000000000054000000370000005A0033
:1020C800000000002C004700000000000000510044
:1020D8000000000000004D003A0038000000000039
:1020E8000000000000004F00000039000000000060
:1020F80000003000000000000000060792043E08BF
:102108003D0800000000D0059204F40434062805B8
:1021180006051A05000000001A0992043E083D0849
:102128001A091A091A09000000001A0992043E083F
:102138003D080D0A002E002D2D2D2D2D2D2D2D2D78
:102148002D2D2D2D2D2D2D2D005F5F5F5F5F5F5F86
:102158005F5F5F5F5F5F00556E72656C6961626C9F
:0E21680065204C4F572F484947483A20000049
:00000001FF
