:100000000C9467000C948F000C948F000C948F005C
:100010000C948F000C948F000C948F000C94B805F6
:100020000C948F000C948F000C948F000C948F0014
:100030000C948F000C948F000C946C060C948F0021
:100040000C946E050C948F000C943A060C941406D4
:100050000C948F000C948F000C948F000C948F00E4
:100060000C948F000C948F004D6F72736520436F5A
:100070006465204465636F646572000000000800D9
:10008000020100000304070000000000000000025D
:1000900000000000250028002B00000000002400C4
:1000A00027002A00040404040404040402020202D7
:1000B000020203030303030301020408102040802B
:1000C0000102040810200102040810202E08112447
:1000D0001FBECFEFD8E0DEBFCDBF12E0A0E0B1E0A1
:1000E000E2E1F8E102C005900D92A637B107D9F719
:1000F00023E0A6E7B2E001C01D92AA37B207E1F7FC
:1001000010E0C7E6D0E004C02197FE010E94DB0AA0
:10011000C636D107C9F70E94D2080C94070C0C947C
:10012000000090E0FC01E854FF4F2491FC01EC55E5
:10013000FF4F8491882399F090E0880F991FFC016C
:10014000E656FF4FA591B491FC01E057FF4F859112
:1001500094918FB7F894EC91E22BEC938FBF0895B4
:10016000CF9380910001883021F08F3F09F0D4C0F7
:1001700004C0EFE8F0E0C49172C088E08093000111
:10018000EFE8F0E0E491EF3F09F4C6C0E13009F494
:1001900044C040F1E23009F061C01092B00010920A
:1001A000B1008091B00082608093B0008091B10076
:1001B00081608093B100ECEAF0E0E491F0E0EE0FB2
:1001C000FF1FE057FF4F8591949190938302809396
:1001D0008202E0ECF0E0E491E093810288E00E948A
:1001E00091005EC014BC15BC84B5826084BD85B529
:1001F000816085BDECEAF0E0E491F0E0EE0FFF1FD6
:10020000E057FF4F85919491E0ECF0E0E491E093AA
:10021000850288E00E9491002CC01092800010920C
:1002200081008091810088608093810080918100AD
:10023000816080938100ECEAF0E0E491F0E0EE0F61
:10024000FF1FE057FF4F85919491E0ECF0E0E491BF
:10025000E093840288E00E9491002CC0CE2FC7FD5D
:100260005BC088E00E949100CC2319F0C23001F5F8
:1002700017C085B5887F846085BD86E787BD8FEF11
:100280009FEFDC0180938E0290938F02A0939002E7
:10029000B093910280916E00826080936E003CC0AA
:1002A0008091B100887F85608093B1008DEE22C07F
:1002B000C130E9F480918100887F81608093810062
:1002C00085E497E790938900809388008FEF9FEFF4
:1002D000DC0180938A0290938B02A0938C02B093EE
:1002E0008D0280916F00826080936F0015C0C230D4
:1002F00099F485E48093B3008FEF9FEFDC01809346
:10030000860290938702A0938802B093890280911D
:100310007000826080937000CF91089590E0FC019E
:10032000E558FF4F2491FC01E854FF4F3491FC0144
:10033000EC55FF4FE491EE2309F43CC0222339F140
:10034000233091F038F42130A9F0223001F584B542
:100350008F7D12C0273091F02830A1F02430B9F4FD
:10036000809180008F7D03C0809180008F77809383
:1003700080000DC084B58F7784BD09C08091B00026
:100380008F7703C08091B0008F7D8093B000F0E044
:10039000EE0FFF1FE057FF4FA591B4919FB7F89460
:1003A000611104C08C913095382302C0EC913E2B32
:1003B0003C939FBF08953FB7F89480917D02909140
:1003C0007E02A0917F02B091800226B5A89B05C055
:1003D0002F3F19F00196A11DB11D3FBFBA2FA92FC4
:1003E000982F8827820F911DA11DB11DBC01CD0141
:1003F00042E0660F771F881F991F4A95D1F708952D
:100400008F929F92AF92BF92CF92DF92EF92FF9224
:100410006B017C010E94DB014B015C01C114D10422
:10042000E104F104F1F00E94DB01DC01CB01881949
:100430009909AA09BB09883E9340A105B10570F34B
:1004400021E0C21AD108E108F10888EE880E83E0A5
:10045000981EA11CB11CC114D104E104F10419F7C8
:10046000DDCFFF90EF90DF90CF90BF90AF909F9047
:100470008F90089590910001891324C0EFE8F0E077
:10048000E4919FEF90930001E130B9F098F0E230F1
:10049000C9F4909170009D7F9093700091E09093CB
:1004A000B0009091B100987F94609093B100109249
:1004B000B30008C010926E0005C090916F009D7F40
:1004C00090936F0060E00C948E01CF92DF92EF92D8
:1004D000FF920F931F93CF93DF936C017A018B01EF
:1004E000C0E0D0E0CE15DF0581F0D8016D918D011F
:1004F000D601ED91FC910190F081E02DC6010995A6
:10050000892B11F02196EECF7E01C701DF91CF91AB
:100510001F910F91FF90EF90DF90CF900895FC0115
:10052000538D448D252F30E0842F90E0821B930B58
:10053000541710F0CF96089501970895FC01918DFE
:10054000828D981761F0828DDF01A80FB11D5D9635
:100550008C91928D9F5F9F73928F90E008958FEFA3
:100560009FEF0895FC01918D828D981731F0828D57
:10057000E80FF11D858D90E008958FEF9FEF0895AE
:10058000FC01918D228D892F90E0805C9F4F821B12
:1005900091098F739927089582E992E00E94C00221
:1005A00021E0892B09F420E0822F0895FC01848D3D
:1005B000DF01A80FB11DA35ABF4F2C91848D90E08D
:1005C00001968F739927848FA689B7892C93A08968
:1005D000B1898C91837080648C93938D848D9813F2
:1005E00006C00288F389E02D80818F7D8083089585
:1005F000EF92FF920F931F93CF93DF93EC0181E073
:10060000888F9B8D8C8D981305C0E889F98980812E
:1006100085FD26C0F62E0B8D10E00F5F1F4F0F7368
:100620001127E02E8C8DE8120CC00FB607FCFACF14
:10063000E889F989808185FFF5CFCE010E94D60235
:10064000F1CF8B8DFE01E80FF11DE35AFF4FF082D1
:100650009FB7F8940B8FEA89FB89808180620AC07A
:100660009FB7F894EE89FF896083E889F9898081D2
:100670008370806480839FBF81E090E0DF91CF91A1
:100680001F910F91FF90EF900895682F82E992E0FB
:100690000C94F802CF93DF93EC01888D8823C9F086
:1006A000EA89FB89808185FD05C0A889B9898C917B
:1006B00086FD0FC00FB607FCF5CF808185FFF2CF16
:1006C000A889B9898C9185FFEDCFCE010E94D60211
:1006D000E7CFDF91CF91089580E090E0892B29F05A
:1006E0000E94CC0281110C9400000895CF93DF93F7
:1006F000EC0160E08E810E948E0161E08E810E949B
:100700008E0160E08E810E948E018BE891E001975E
:10071000F1F7DF91CF910895CF92DF92EF92FF92A0
:100720000F931F93CF93DF936C017C0187E0E80E5A
:10073000F11CC0E0D0E0062F10E0B8010C2E02C082
:10074000759567950A94E2F76170F70181917F01D1
:100750000E948E012196C430D10579F7C601DF9140
:10076000CF911F910F91FF90EF90DF90CF900C945D
:100770007603CF92DF92EF92FF920F931F93CF9366
:10078000DF93EC01F62E642F8C810E948E018D8107
:100790008F3F19F060E00E948E018F850F2D10E0D1
:1007A00084FF25C06E0187E0C80ED11CE12CF12C1E
:1007B000B8010E2C02C0759567950A94E2F7617036
:1007C000F60181916F010E948E01FFEFEF1AFF0A7F
:1007D00088E0E816F10461F7CE01DF91CF911F9117
:1007E0000F91FF90EF90DF90CF900C947603B801BB
:1007F00084E0759567958A95E1F7CE010E948C0398
:100800006F2DCE01DF91CF911F910F91FF90EF904F
:10081000DF90CF900C948C0340E0682F81E393E04D
:100820000C94B903CF93DF9381E08093440310923B
:10083000450380E48093460380E18093470380E58D
:1008400080934803809135030E9491008091360384
:100850008F3F11F00E949100809137030E94910018
:10086000C1E3D3E09E01215333408091400384FDD6
:1008700003C084E090E002C088E090E02196281751
:10088000390724F48E810E949100ECCF8BE39DE028
:100890000197F1F760E0809135030E948E0160E0DE
:1008A000809137030E948E01809136038F3F19F0AB
:1008B00060E00E948E018091400384FD20C063E0CF
:1008C00081E393E00E948C03CBE4D6E4CE01019750
:1008D000F1F763E081E393E00E948C032197F1F745
:1008E00063E081E393E00E948C0383E592E001974B
:1008F000F1F762E081E393E00E948C0315C080620F
:100900000E940C048BE496E40197F1F78091400378
:1009100080620E940C0483E592E00197F1F78091D8
:10092000400380620E940C048091400380620E9418
:100930000C0484E0809341038CE00E940C0481E06D
:100940000E940C048BE39FE10197F1F782E0809312
:10095000420386E0DF91CF910C940C0441E00E94A9
:10096000B90381E090E00895089580E090E0089553
:100970000E94B00060E570E080E090E00E9400021C
:1009800088E00E943A026AE070E080E090E00C9417
:1009900000020E94B00064E170E080E090E00E94FC
:1009A000000288E00E943A026AE070E080E090E095
:1009B0000C9400020E94020C6115710579F0FB0194
:1009C00001900020E9F73197AF01461B570BDC017E
:1009D000ED91FC910280F381E02D099480E090E09C
:1009E000089564E272E082E992E00C94DC048F9254
:1009F0009F92AF92BF92CF92DF92EF92FF920F93AE
:100A00001F93CF93DF93CDB7DEB7A1970FB6F894BE
:100A1000DEBF0FBECDBF6C01990FEE08FF08F7FED9
:100A20002BC08DE20E9445038C0122273327A901A8
:100A30002C193D094E095F0919A2CE0181967C014E
:100A40009AE0892E912CA12CB12CCA01B901A501E3
:100A500094010E94A50A605DF70162937F01211550
:100A600031054105510589F7BF0182E992E00E94F5
:100A7000DC04800F911F1FC0A701960119A28E01EF
:100A80000F5D1F4F8AE0C82ED12CE12CF12CCA013A
:100A9000B901A70196010E94A50A605DF801629361
:100AA0008F01211531054105510589F7BF0182E903
:100AB00092E00E94DC04A1960FB6F894DEBF0FBE50
:100AC000CDBFDF91CF911F910F91FF90EF90DF90FD
:100AD000CF90BF90AF909F908F9008951F920F92EC
:100AE0000FB60F9211242F933F938F939F93AF9341
:100AF000BF938091790290917A02A0917B02B0918C
:100B00007C023091780223E0230F2D3720F40196E8
:100B1000A11DB11D05C026E8230F0296A11DB11D20
:100B2000209378028093790290937A02A0937B02BB
:100B3000B0937C0280917D0290917E02A0917F0211
:100B4000B09180020196A11DB11D80937D0290930A
:100B50007E02A0937F02B0938002BF91AF919F91DC
:100B60008F913F912F910F900FBE0F901F9018956E
:100B70001F920F920FB60F9211242F933F934F9312
:100B80005F936F937F938F939F93AF93BF93EF93F5
:100B9000FF938091860290918702A0918802B09184
:100BA0008902892B8A2B8B2B51F190918102E09144
:100BB0008202F0918302808189278083809186025E
:100BC00090918702A0918802B091890218161906A7
:100BD0001A061B06C4F48091860290918702A091A8
:100BE0008802B09189020197A109B1098093860218
:100BF00090938702A0938802B093890204C08091E9
:100C000000010E943A02FF91EF91BF91AF919F9135
:100C10008F917F916F915F914F913F912F910F90A5
:100C20000FBE0F901F9018951F920F920FB60F9244
:100C300011242F933F934F935F936F937F938F93E1
:100C40009F93AF93BF93EF93FF9382E992E00E944B
:100C5000D602FF91EF91BF91AF919F918F917F91BC
:100C60006F915F914F913F912F910F900FBE0F9019
:100C70001F9018951F920F920FB60F9211242F9369
:100C80008F939F93EF93FF93E091A202F091A302C1
:100C90008081E091A802F091A90282FD12C09081AA
:100CA0008091AB028F5F8F732091AC02821751F05D
:100CB000E091AB02F0E0EE56FD4F958F8093AB02D2
:100CC00001C08081FF91EF919F918F912F910F90A3
:100CD0000FBE0F901F9018951F920F920FB60F9294
:100CE0001124CF92DF92EF92FF920F931F932F93D5
:100CF0003F934F935F936F937F938F939F93AF93A4
:100D0000BF93EF93FF93F89480E480937C008091ED
:100D10007A00806480937A0080917A0086FDFCCF0F
:100D2000009178008091790010E0182B8FB7F8942B
:100D3000C0907902D0907A02E0907B02F0907C0221
:100D40008FBF8091610390916203A0916303B09182
:100D50006403A7019601281B390B4A0B5B0BDA01D0
:100D6000C90189389341A105B10508F449C0209112
:100D70005B0330915C0380915D0390915E032817C3
:100D8000390764F5821B930B8531910564F09595C5
:100D90008795820F931F9093600380935F0381E098
:100DA000809365031BC00E94F1046FE572E082E945
:100DB00092E00E94DC0480915B0390915C030E94AE
:100DC000F70480E20E94450380915D0390915E03E9
:100DD0000E94F7040E94F1041092650310925E03D2
:100DE00010925D038FEF93E090935C0380935B031D
:100DF000C0926103D0926203E0926303F0926403B5
:100E000080915B0390915C030817190724F41093F9
:100E10005C0300935B0380915D0390915E038017F8
:100E2000910724F410935E0300935D0380916503A2
:100E3000882309F4FBC020915F03309160034FB712
:100E4000F8948091790290917A02A0917B02B091FE
:100E50007C024FBF40914D0350914E034115510507
:100E600009F062C0201731070CF0E0C0409149033F
:100E700050914A0360914B0370914C038C019D018A
:100E8000041B150B260B370B409157035091580349
:100E9000052E000C660B770B04171507260737077E
:100EA000A8F54091530350915403052E000C660B96
:100EB000770B041715072607370768F0409155038D
:100EC00050915603052E000C660B770B4017510707
:100ED00062077307E8F440914F0350915003052EC9
:100EE000000C660B770B041715072607370790F0E1
:100EF0004091510350915203052E000C660B770B65
:100F0000401751076207730738F404C045E005C075
:100F100044E003C040E001C043E061E070E0709352
:100F20004E0360934D0353C04130510509F07EC01C
:100F3000201731070CF47AC04091490350914A03BD
:100F400060914B0370914C038C019D01041B150BA8
:100F5000260B370B4091530350915403052E000C80
:100F6000660B770B041715072607370768F04091C3
:100F7000550350915603052E000C660B770B401756
:100F8000510762077307E0F440914F0350915003FB
:100F9000052E000C660B770B04171507260737077D
:100FA00088F0C0905103D09052030D2C000CEE0835
:100FB000FF0841E0C016D106E206F30620F402C0A5
:100FC00042E001C040E010924E0310924D03809326
:100FD000490390934A03A0934B03B0934C03809131
:100FE000720390917303019660916E0370916F0389
:100FF0000E94910A609170037091710386179707A0
:10100000A9F0909373038093720355E0589FB00149
:10101000599F700D1124E0917403F0917503E60F50
:10102000F71F408301831283238334837894FF91D5
:10103000EF91BF91AF919F918F917F916F915F9150
:101040004F913F912F911F910F91FF90EF90DF9063
:10105000CF900F900FBE0F901F901895CF93DF93F6
:10106000E2E9F2E01382128288EE93E0A0E0B0E0C1
:1010700084839583A683B7838AE092E091838083FB
:1010800085EC90E09587848784EC90E0978786874D
:1010900080EC90E0918B808B81EC90E0938B828B45
:1010A00082EC90E0958B848B86EC90E0978B868B1E
:1010B000118E128E138E148ECEE6D3E086E090E071
:1010C000998388831B821A821D821C828EE190E0A4
:1010D0000E94E10A9F838E83E6E6F3E0108212828B
:1010E00011828FEF90E0948383838FE790E0968363
:1010F00085831782EBE5F3E08FEF93E091838083A4
:10110000138212828FEF91E0958384831682178277
:1011100010861186E9E4F3E01082118212821382B4
:101120001582148282E390E09783868386E990E0BB
:101130009187808788EC90E09387828780E991E0AF
:101140009587848784EF91E09787868780E293E094
:10115000918B808BE1E3F3E0138212828CE192E0C9
:10116000918380838CE084838FEF85838BE08683FB
:1011700085E0878384E0808783E0818782E08287BF
:10118000138614861586168617860E94120483E03D
:1011900090E00E94E10A9093300380932F03DF9147
:1011A000CF910895789484B5826084BD84B58160C0
:1011B00084BD85B5826085BD85B5816085BD809122
:1011C0006E00816080936E0010928100809181009A
:1011D0008260809381008091810081608093810092
:1011E000809180008160809380008091B100846054
:1011F0008093B1008091B00081608093B0008091B5
:101200007A00846080937A0080917A008260809373
:101210007A0080917A00816080937A0080917A00D0
:10122000806880937A001092C100E091A202F09150
:10123000A30282E08083E0919E02F0919F021082DF
:10124000E091A002F091A1028FEC80831092AA029B
:10125000E091A602F091A70286E08083E091A402CB
:10126000F091A502808180618083E091A402F091D9
:10127000A502808188608083E091A402F091A5029C
:10128000808180688083E091A402F091A502808132
:101290008F7D8083C8E6D0E0FE01649161113DC07E
:1012A0000E94F10467E272E082E992E00E94DC04AD
:1012B0000E94F1040E94120469E372E081E393E06A
:1012C0000E94DC040E94C9040E94B8040E94C90460
:1012D0000E94B8040E94C9040E94B8040E94C90474
:1012E0000E94B8040E94C9040E94B8040E94C90464
:1012F0000E94B804F8948FEA87BD80916E008260E6
:1013000080936E00789455E0B52E60E2A62ECC2432
:10131000CA94D12C0FE710E06BC082E992E00E94E2
:10132000F8022196892B09F0B7CFBACFC13009F066
:1013300063C06BE472E082E992E00E94DC04E0901A
:101340002F03F090300380916603882309F45AC07C
:101350009CEF9C0F923008F08DC0811189C0E09104
:101360006B03F0916C03E95FFE4F80818111CEC069
:10137000109266031092680310926703D0926A037A
:10138000C092690310936C0300936B03C0936D03C9
:10139000811172C0C53019F40E94F104C5E0F894BF
:1013A00080917003909171032091720330917303C7
:1013B00082179307F9F0B89E9001B99E300D112461
:1013C000E0917403F0917503E20FF31FC081019661
:1013D00060916E0370916F030E94910A9093710364
:1013E0008093700381E078948111A0CF0E946C03F8
:1013F000D1E0D4CF80E0F7CFC23009F0A0CF67E3CF
:1014000072E099CFC13099F420916703309168035D
:1014100080916B0390916C032817390719F4D093CE
:10142000660328C090936A038093690314C0C23096
:1014300009F08ECF8091690390916A0320916B032C
:1014400030916C038217930751F32F5F3F4F309316
:10145000680320936703821B930B97FD0196959574
:101460008795820F931F90936C0380936B0302C048
:1014700080E07ECF80E08ACF88E20E944503B701FA
:1014800082E992E00E94DC0490917602E0914403AC
:10149000E23010F4E15001C0E1E0F0E0EF5CFC4F1D
:1014A0008489890F80680E940C0460912F037091D9
:1014B000300381E393E00E94DC04809176029091F6
:1014C00077020196813191052CF4909377028093F5
:1014D000760218C01092770210927602E0914403CF
:1014E000E23010F4E15001C0E1E0F0E0EF5CFC4FCD
:1014F000848980680E940C046DE472E081E393E0CB
:101500000E94DC0489E20E94450344CFF7018083F6
:10151000C53021F4F701A182128201C0118281E05D
:1015200027CF97FB072E16F4009407D077FD09D03C
:101530000E94C70A07FC05D03EF4909581959F4F05
:101540000895709561957F4F0895A1E21A2EAA1B08
:10155000BB1BFD010DC0AA1FBB1FEE1FFF1FA21763
:10156000B307E407F50720F0A21BB30BE40BF50B60
:10157000661F771F881F991F1A9469F760957095E9
:10158000809590959B01AC01BD01CF010895AA1BE8
:10159000BB1B51E107C0AA1FBB1FA617B70710F05E
:1015A000A61BB70B881F991F5A95A9F78095909590
:1015B000BC01CD010895EE0FFF1F0590F491E02DC1
:1015C00009940F931F93CF93DF938230910510F40A
:1015D00082E090E0E0917803F091790320E030E040
:1015E000A0E0B0E0309719F1408151810281138170
:1015F00048175907C8F08417950769F4109731F018
:1016000012960C93129713961C9327C0009378039D
:101610001093790322C02115310519F042175307A1
:1016200018F49A01BD01EF01DF01F801DBCF2115AC
:101630003105F9F0281B390B2430310580F48A81FB
:101640009B816115710521F0FB019383828304C0A6
:101650009093790380937803FE01329644C0FE0193
:10166000E20FF31F8193919322503109398328832C
:101670003AC02091760330917703232B41F42091D7
:101680000301309104013093770320937603209176
:101690000101309102012115310541F42DB73EB70A
:1016A0004091050150910601241B350BE091760312
:1016B000F0917703E217F307A0F42E1B3F0B2817D6
:1016C000390778F0AC014E5F5F4F2417350748F0BB
:1016D0004E0F5F1F5093770340937603819391934E
:1016E00002C0E0E0F0E0CF01DF91CF911F910F91B8
:1016F0000895CF93DF93009709F481C0FC013297DE
:1017000013821282A0917803B0917903109781F42B
:1017100020813181820F931F2091760330917703CE
:101720002817390751F5F0937703E093760367C0E4
:10173000ED0120E030E0CE17DF0740F44A815B8105
:101740009E0141155105F1F0EA01F5CFD383C28323
:1017500040815181840F951FC817D90759F488819A
:101760009981840F951F0296918380838A819B8142
:10177000938382832115310529F4F0937903E09353
:1017800078033DC0E901FB83EA8349915991C40F75
:10179000D51FEC17FD0761F480819181840F951F9F
:1017A0000296E90199838883828193819B838A834E
:1017B000E0E0F0E012968D919C911397009719F05C
:1017C000FD01DC01F7CF8D919C9111979D012E5F5A
:1017D0003F4F820F931F2091760330917703281794
:1017E000390769F4309729F410927903109278033D
:1017F00002C013821282B0937703A0937603DF9125
:10180000CF91089581E090E0F8940C94070CF8943F
:02181000FFCF08
:10181200FF00007A032000000000350000004800AD
:1018220000003400000053000024000000005600B5
:1018320000003300000049000000000000004600E4
:1018420000000000000055003F0000005F000000A3
:1018520000003200000045000000260000004C009D
:10186200220000000000520000002B002E000000A9
:1018720000000000000041000000000000005000D5
:1018820040000000000057000000000000004A0075
:101892002700310000000000000036002D00420049
:1018A20000003D000000440000002F00000058002E
:1018B2000000000000004E00000000000000430095
:1018C2003B00000021004B000000280029005900C5
:1018D20000000000000054000000370000005A0021
:1018E200000000002C004700000000000000510032
:1018F2000000000000004D003A0038000000000027
:101902000000000000004F0000003900000000004D
:1019120000003000000000000000F80265028F02A3
:101922004A03C0029E02B20200000000AE04650239
:10193200B504B4040D0A002D2D2D2D2D2D2D2D2D88
:101942002D2D2D2D2D2D2D2D005F5F5F5F5F5F5F94
:101952005F5F5F5F5F5F5F5F5F5F002E0020202041
:101962002020202020202020202020202020005560
:101972006E72656C6961626C65204C4F572F4849E5
:0619820047483A20000076
:00000001FF
